{
  "contractName": "uniswapLiquidity",
  "abi": [
    {
      "anonymous": false,
      "inputs": [
        {
          "indexed": false,
          "internalType": "string",
          "name": "message",
          "type": "string"
        },
        {
          "indexed": false,
          "internalType": "uint256",
          "name": "val",
          "type": "uint256"
        }
      ],
      "name": "Log",
      "type": "event"
    },
    {
      "anonymous": false,
      "inputs": [
        {
          "indexed": false,
          "internalType": "uint256",
          "name": "amountA",
          "type": "uint256"
        },
        {
          "indexed": false,
          "internalType": "uint256",
          "name": "amountB",
          "type": "uint256"
        },
        {
          "indexed": false,
          "internalType": "uint256",
          "name": "amountLiquidity",
          "type": "uint256"
        }
      ],
      "name": "liquidityAdded",
      "type": "event"
    },
    {
      "anonymous": false,
      "inputs": [
        {
          "indexed": false,
          "internalType": "uint256",
          "name": "amountA",
          "type": "uint256"
        },
        {
          "indexed": false,
          "internalType": "uint256",
          "name": "amountB",
          "type": "uint256"
        }
      ],
      "name": "liquidityRemoved",
      "type": "event"
    },
    {
      "inputs": [
        {
          "internalType": "address",
          "name": "_tokenA",
          "type": "address"
        },
        {
          "internalType": "address",
          "name": "_tokenB",
          "type": "address"
        },
        {
          "internalType": "uint256",
          "name": "_amountA",
          "type": "uint256"
        },
        {
          "internalType": "uint256",
          "name": "_amountB",
          "type": "uint256"
        }
      ],
      "name": "addLiquidity",
      "outputs": [],
      "stateMutability": "nonpayable",
      "type": "function"
    },
    {
      "inputs": [
        {
          "internalType": "address",
          "name": "_tokenA",
          "type": "address"
        },
        {
          "internalType": "address",
          "name": "_tokenB",
          "type": "address"
        }
      ],
      "name": "removeLiquidity",
      "outputs": [],
      "stateMutability": "nonpayable",
      "type": "function"
    }
  ],
  "bytecode": "0x608060405234801561001057600080fd5b50610b58806100206000396000f3fe608060405234801561001057600080fd5b50600436106100365760003560e01c80639cf38f7c1461003b578063cf6c62ea14610057575b600080fd5b61005560048036038101906100509190610675565b610073565b005b610071600480360381019061006c91906106eb565b6102fc565b005b6000735c69bee701ef814a2b6a3edd4b1652cb9cc5aa6f73ffffffffffffffffffffffffffffffffffffffff1663e6a4390584846040518363ffffffff1660e01b81526004016100c4929190610761565b602060405180830381865afa1580156100e1573d6000803e3d6000fd5b505050506040513d601f19601f82011682018060405250810190610105919061079f565b905060008173ffffffffffffffffffffffffffffffffffffffff166370a08231306040518263ffffffff1660e01b815260040161014291906107cc565b602060405180830381865afa15801561015f573d6000803e3d6000fd5b505050506040513d601f19601f8201168201806040525081019061018391906107fc565b90508173ffffffffffffffffffffffffffffffffffffffff1663095ea7b3737a250d5630b4cf539739df2c5dacb4c659f2488d836040518363ffffffff1660e01b81526004016101d4929190610838565b6020604051808303816000875af11580156101f3573d6000803e3d6000fd5b505050506040513d601f19601f820116820180604052508101906102179190610899565b50600080737a250d5630b4cf539739df2c5dacb4c659f2488d73ffffffffffffffffffffffffffffffffffffffff1663baa2abde87878660018030426040518863ffffffff1660e01b8152600401610275979695949392919061090b565b60408051808303816000875af1158015610293573d6000803e3d6000fd5b505050506040513d601f19601f820116820180604052508101906102b7919061097a565b915091507f06e61ce293536045b3c3e50f6afa3f3275782981dc5d17bb8a2c03a92c4bfd8f82826040516102ec9291906109ba565b60405180910390a1505050505050565b8373ffffffffffffffffffffffffffffffffffffffff166323b872dd3330856040518463ffffffff1660e01b8152600401610339939291906109e3565b6020604051808303816000875af1158015610358573d6000803e3d6000fd5b505050506040513d601f19601f8201168201806040525081019061037c9190610899565b508273ffffffffffffffffffffffffffffffffffffffff166323b872dd3330846040518463ffffffff1660e01b81526004016103ba939291906109e3565b6020604051808303816000875af11580156103d9573d6000803e3d6000fd5b505050506040513d601f19601f820116820180604052508101906103fd9190610899565b508373ffffffffffffffffffffffffffffffffffffffff1663095ea7b3737a250d5630b4cf539739df2c5dacb4c659f2488d846040518363ffffffff1660e01b815260040161044d929190610838565b6020604051808303816000875af115801561046c573d6000803e3d6000fd5b505050506040513d601f19601f820116820180604052508101906104909190610899565b508273ffffffffffffffffffffffffffffffffffffffff1663095ea7b3737a250d5630b4cf539739df2c5dacb4c659f2488d836040518363ffffffff1660e01b81526004016104e0929190610838565b6020604051808303816000875af11580156104ff573d6000803e3d6000fd5b505050506040513d601f19601f820116820180604052508101906105239190610899565b506000806000737a250d5630b4cf539739df2c5dacb4c659f2488d73ffffffffffffffffffffffffffffffffffffffff1663e8e337008888888860018030426040518963ffffffff1660e01b8152600401610585989796959493929190610a1a565b6060604051808303816000875af11580156105a4573d6000803e3d6000fd5b505050506040513d601f19601f820116820180604052508101906105c89190610a98565b9250925092507f3db50c324c27fb39c451e35d4d23abba3e20d96d036e7a40f4adc681c1ce301383838360405161060193929190610aeb565b60405180910390a150505050505050565b600080fd5b600073ffffffffffffffffffffffffffffffffffffffff82169050919050565b600061064282610617565b9050919050565b61065281610637565b811461065d57600080fd5b50565b60008135905061066f81610649565b92915050565b6000806040838503121561068c5761068b610612565b5b600061069a85828601610660565b92505060206106ab85828601610660565b9150509250929050565b6000819050919050565b6106c8816106b5565b81146106d357600080fd5b50565b6000813590506106e5816106bf565b92915050565b6000806000806080858703121561070557610704610612565b5b600061071387828801610660565b945050602061072487828801610660565b9350506040610735878288016106d6565b9250506060610746878288016106d6565b91505092959194509250565b61075b81610637565b82525050565b60006040820190506107766000830185610752565b6107836020830184610752565b9392505050565b60008151905061079981610649565b92915050565b6000602082840312156107b5576107b4610612565b5b60006107c38482850161078a565b91505092915050565b60006020820190506107e16000830184610752565b92915050565b6000815190506107f6816106bf565b92915050565b60006020828403121561081257610811610612565b5b6000610820848285016107e7565b91505092915050565b610832816106b5565b82525050565b600060408201905061084d6000830185610752565b61085a6020830184610829565b9392505050565b60008115159050919050565b61087681610861565b811461088157600080fd5b50565b6000815190506108938161086d565b92915050565b6000602082840312156108af576108ae610612565b5b60006108bd84828501610884565b91505092915050565b6000819050919050565b6000819050919050565b60006108f56108f06108eb846108c6565b6108d0565b6106b5565b9050919050565b610905816108da565b82525050565b600060e082019050610920600083018a610752565b61092d6020830189610752565b61093a6040830188610829565b61094760608301876108fc565b61095460808301866108fc565b61096160a0830185610752565b61096e60c0830184610829565b98975050505050505050565b6000806040838503121561099157610990610612565b5b600061099f858286016107e7565b92505060206109b0858286016107e7565b9150509250929050565b60006040820190506109cf6000830185610829565b6109dc6020830184610829565b9392505050565b60006060820190506109f86000830186610752565b610a056020830185610752565b610a126040830184610829565b949350505050565b600061010082019050610a30600083018b610752565b610a3d602083018a610752565b610a4a6040830189610829565b610a576060830188610829565b610a6460808301876108fc565b610a7160a08301866108fc565b610a7e60c0830185610752565b610a8b60e0830184610829565b9998505050505050505050565b600080600060608486031215610ab157610ab0610612565b5b6000610abf868287016107e7565b9350506020610ad0868287016107e7565b9250506040610ae1868287016107e7565b9150509250925092565b6000606082019050610b006000830186610829565b610b0d6020830185610829565b610b1a6040830184610829565b94935050505056fea26469706673582212201f2ea4f54acf1a894bc4d2f48f154fb27c2a1bf44eb82ec989e1544ab5741e0c64736f6c634300080d0033",
  "immutableReferences": {},
  "source": "// SPDX-License-Identifier: MIT\r\npragma solidity >=0.4.22 <0.9.0;\r\n\r\nimport \"@openzeppelin/contracts/token/ERC20/IERC20.sol\";\r\nimport \"./IUniswap.sol\";\r\n\r\ncontract uniswapLiquidity {\r\n    address constant FACTORY = 0x5C69bEe701ef814a2B6a3EDD4B1652CB9cc5aA6f;\r\n    address constant ROUTER = 0x7a250d5630B4cF539739dF2C5dAcb4c659F2488D;\r\n\r\n    event Log(string message, uint256 val);\r\n    event liquidityAdded(\r\n        uint256 amountA,\r\n        uint256 amountB,\r\n        uint256 amountLiquidity\r\n    );\r\n    event liquidityRemoved(uint256 amountA, uint256 amountB);\r\n\r\n    function addLiquidity(\r\n        address _tokenA,\r\n        address _tokenB,\r\n        uint256 _amountA,\r\n        uint256 _amountB\r\n    ) external {\r\n        IERC20(_tokenA).transferFrom(msg.sender, address(this), _amountA);\r\n        IERC20(_tokenB).transferFrom(msg.sender, address(this), _amountB);\r\n\r\n        IERC20(_tokenA).approve(ROUTER, _amountA);\r\n        IERC20(_tokenB).approve(ROUTER, _amountB);\r\n\r\n        (\r\n            uint256 amountA,\r\n            uint256 amountB,\r\n            uint256 liquidity\r\n        ) = IUniswapV2Router(ROUTER).addLiquidity(\r\n                _tokenA,\r\n                _tokenB,\r\n                _amountA,\r\n                _amountB,\r\n                1,\r\n                1,\r\n                address(this),\r\n                block.timestamp\r\n            );\r\n\r\n        emit liquidityAdded(amountA, amountB, liquidity);\r\n    }\r\n\r\n    function removeLiquidity(address _tokenA, address _tokenB) external {\r\n        address pair = IUniswapV2Factory(FACTORY).getPair(_tokenA, _tokenB);\r\n\r\n        uint256 liquidity = IERC20(pair).balanceOf(address(this));\r\n        IERC20(pair).approve(ROUTER, liquidity);\r\n\r\n        (uint256 amountA, uint256 amountB) = IUniswapV2Router(ROUTER)\r\n            .removeLiquidity(\r\n                _tokenA,\r\n                _tokenB,\r\n                liquidity,\r\n                1,\r\n                1,\r\n                address(this),\r\n                block.timestamp\r\n            );\r\n        emit liquidityRemoved(amountA, amountB);\r\n    }\r\n}\r\n",
  "sourcePath": "C:\\Users\\HP\\Documents\\DApp\\Uniswap\\liquidity\\contracts\\uniswapLiquidity.sol",
  "compiler": {
    "name": "solc",
    "version": "0.8.13+commit.abaa5c0e.Emscripten.clang"
  },
  "schemaVersion": "3.4.6",
  "updatedAt": "2022-09-28T15:26:27.342Z",
  "devdoc": {
    "kind": "dev",
    "methods": {},
    "version": 1
  },
  "userdoc": {
    "kind": "user",
    "methods": {},
    "version": 1
  }
}