{
  "contractName": "FlashSwap",
  "abi": [
    {
      "anonymous": false,
      "inputs": [
        {
          "indexed": false,
          "internalType": "string",
          "name": "message",
          "type": "string"
        },
        {
          "indexed": false,
          "internalType": "uint256",
          "name": "val",
          "type": "uint256"
        }
      ],
      "name": "Log",
      "type": "event"
    },
    {
      "inputs": [
        {
          "internalType": "address",
          "name": "_tokenBorrow",
          "type": "address"
        },
        {
          "internalType": "uint256",
          "name": "_amount",
          "type": "uint256"
        }
      ],
      "name": "doFlashSwap",
      "outputs": [],
      "stateMutability": "nonpayable",
      "type": "function"
    },
    {
      "inputs": [
        {
          "internalType": "address",
          "name": "_sender",
          "type": "address"
        },
        {
          "internalType": "uint256",
          "name": "_amount0",
          "type": "uint256"
        },
        {
          "internalType": "uint256",
          "name": "_amount1",
          "type": "uint256"
        },
        {
          "internalType": "bytes",
          "name": "_data",
          "type": "bytes"
        }
      ],
      "name": "uniswapV2Call",
      "outputs": [],
      "stateMutability": "nonpayable",
      "type": "function"
    }
  ],
  "bytecode": "0x608060405234801561001057600080fd5b506110dc806100206000396000f3fe608060405234801561001057600080fd5b50600436106100365760003560e01c806310d1e85c1461003b5780633cfcbe0c14610057575b600080fd5b610055600480360381019061005091906108da565b610073565b005b610071600480360381019061006c9190610962565b6104b9565b005b60003373ffffffffffffffffffffffffffffffffffffffff16630dfe16816040518163ffffffff1660e01b8152600401602060405180830381865afa1580156100c0573d6000803e3d6000fd5b505050506040513d601f19601f820116820180604052508101906100e491906109b7565b905060003373ffffffffffffffffffffffffffffffffffffffff1663d21220a76040518163ffffffff1660e01b8152600401602060405180830381865afa158015610133573d6000803e3d6000fd5b505050506040513d601f19601f8201168201806040525081019061015791906109b7565b90506000735c69bee701ef814a2b6a3edd4b1652cb9cc5aa6f73ffffffffffffffffffffffffffffffffffffffff1663e6a4390584846040518363ffffffff1660e01b81526004016101aa9291906109f3565b602060405180830381865afa1580156101c7573d6000803e3d6000fd5b505050506040513d601f19601f820116820180604052508101906101eb91906109b7565b90508073ffffffffffffffffffffffffffffffffffffffff163373ffffffffffffffffffffffffffffffffffffffff161461025b576040517f08c379a000000000000000000000000000000000000000000000000000000000815260040161025290610a79565b60405180910390fd5b3073ffffffffffffffffffffffffffffffffffffffff168873ffffffffffffffffffffffffffffffffffffffff16146102c9576040517f08c379a00000000000000000000000000000000000000000000000000000000081526004016102c090610ae5565b60405180910390fd5b60008086868101906102db9190610b43565b91509150600060016103e56003846102f39190610bb2565b6102fd9190610c3b565b6103079190610c6c565b9050600081836103179190610c6c565b90507fdd970dd9b5bfe707922155b058a407655cb18288b807e2216442bca8ad83d6b5836040516103489190610d1d565b60405180910390a17fdd970dd9b5bfe707922155b058a407655cb18288b807e2216442bca8ad83d6b58b60405161037f9190610d97565b60405180910390a17fdd970dd9b5bfe707922155b058a407655cb18288b807e2216442bca8ad83d6b58a6040516103b69190610e11565b60405180910390a17fdd970dd9b5bfe707922155b058a407655cb18288b807e2216442bca8ad83d6b5826040516103ed9190610e8b565b60405180910390a17fdd970dd9b5bfe707922155b058a407655cb18288b807e2216442bca8ad83d6b5816040516104249190610f05565b60405180910390a18373ffffffffffffffffffffffffffffffffffffffff1663a9059cbb86836040518363ffffffff1660e01b8152600401610467929190610f33565b6020604051808303816000875af1158015610486573d6000803e3d6000fd5b505050506040513d601f19601f820116820180604052508101906104aa9190610f94565b50505050505050505050505050565b6000735c69bee701ef814a2b6a3edd4b1652cb9cc5aa6f73ffffffffffffffffffffffffffffffffffffffff1663e6a439058473c02aaa39b223fe8d0a0e5c4f27ead9083c756cc26040518363ffffffff1660e01b815260040161051e9291906109f3565b602060405180830381865afa15801561053b573d6000803e3d6000fd5b505050506040513d601f19601f8201168201806040525081019061055f91906109b7565b9050600073ffffffffffffffffffffffffffffffffffffffff168173ffffffffffffffffffffffffffffffffffffffff16036105d0576040517f08c379a00000000000000000000000000000000000000000000000000000000081526004016105c790610a79565b60405180910390fd5b60008173ffffffffffffffffffffffffffffffffffffffff16630dfe16816040518163ffffffff1660e01b8152600401602060405180830381865afa15801561061d573d6000803e3d6000fd5b505050506040513d601f19601f8201168201806040525081019061064191906109b7565b905060008273ffffffffffffffffffffffffffffffffffffffff1663d21220a76040518163ffffffff1660e01b8152600401602060405180830381865afa158015610690573d6000803e3d6000fd5b505050506040513d601f19601f820116820180604052508101906106b491906109b7565b905060008273ffffffffffffffffffffffffffffffffffffffff168673ffffffffffffffffffffffffffffffffffffffff16146106f25760006106f4565b845b905060008273ffffffffffffffffffffffffffffffffffffffff168773ffffffffffffffffffffffffffffffffffffffff1614610732576000610734565b855b90506000878760405160200161074b929190610f33565b60405160208183030381529060405290508573ffffffffffffffffffffffffffffffffffffffff1663022c0d9f848430856040518563ffffffff1660e01b815260040161079b949392919061105a565b600060405180830381600087803b1580156107b557600080fd5b505af11580156107c9573d6000803e3d6000fd5b505050505050505050505050565b600080fd5b600080fd5b600073ffffffffffffffffffffffffffffffffffffffff82169050919050565b600061080c826107e1565b9050919050565b61081c81610801565b811461082757600080fd5b50565b60008135905061083981610813565b92915050565b6000819050919050565b6108528161083f565b811461085d57600080fd5b50565b60008135905061086f81610849565b92915050565b600080fd5b600080fd5b600080fd5b60008083601f84011261089a57610899610875565b5b8235905067ffffffffffffffff8111156108b7576108b661087a565b5b6020830191508360018202830111156108d3576108d261087f565b5b9250929050565b6000806000806000608086880312156108f6576108f56107d7565b5b60006109048882890161082a565b955050602061091588828901610860565b945050604061092688828901610860565b935050606086013567ffffffffffffffff811115610947576109466107dc565b5b61095388828901610884565b92509250509295509295909350565b60008060408385031215610979576109786107d7565b5b60006109878582860161082a565b925050602061099885828601610860565b9150509250929050565b6000815190506109b181610813565b92915050565b6000602082840312156109cd576109cc6107d7565b5b60006109db848285016109a2565b91505092915050565b6109ed81610801565b82525050565b6000604082019050610a0860008301856109e4565b610a1560208301846109e4565b9392505050565b600082825260208201905092915050565b7f2170616972000000000000000000000000000000000000000000000000000000600082015250565b6000610a63600583610a1c565b9150610a6e82610a2d565b602082019050919050565b60006020820190508181036000830152610a9281610a56565b9050919050565b7f2173656e64657200000000000000000000000000000000000000000000000000600082015250565b6000610acf600783610a1c565b9150610ada82610a99565b602082019050919050565b60006020820190508181036000830152610afe81610ac2565b9050919050565b6000610b10826107e1565b9050919050565b610b2081610b05565b8114610b2b57600080fd5b50565b600081359050610b3d81610b17565b92915050565b60008060408385031215610b5a57610b596107d7565b5b6000610b6885828601610b2e565b9250506020610b7985828601610860565b9150509250929050565b7f4e487b7100000000000000000000000000000000000000000000000000000000600052601160045260246000fd5b6000610bbd8261083f565b9150610bc88361083f565b9250817fffffffffffffffffffffffffffffffffffffffffffffffffffffffffffffffff0483118215151615610c0157610c00610b83565b5b828202905092915050565b7f4e487b7100000000000000000000000000000000000000000000000000000000600052601260045260246000fd5b6000610c468261083f565b9150610c518361083f565b925082610c6157610c60610c0c565b5b828204905092915050565b6000610c778261083f565b9150610c828361083f565b9250827fffffffffffffffffffffffffffffffffffffffffffffffffffffffffffffffff03821115610cb757610cb6610b83565b5b828201905092915050565b7f616d6f756e740000000000000000000000000000000000000000000000000000600082015250565b6000610cf8600683610a1c565b9150610d0382610cc2565b602082019050919050565b610d178161083f565b82525050565b60006040820190508181036000830152610d3681610ceb565b9050610d456020830184610d0e565b92915050565b7f616d6f756e743000000000000000000000000000000000000000000000000000600082015250565b6000610d81600783610a1c565b9150610d8c82610d4b565b602082019050919050565b60006040820190508181036000830152610db081610d74565b9050610dbf6020830184610d0e565b92915050565b7f616d6f756e743100000000000000000000000000000000000000000000000000600082015250565b6000610dfb600783610a1c565b9150610e0682610dc5565b602082019050919050565b60006040820190508181036000830152610e2a81610dee565b9050610e396020830184610d0e565b92915050565b7f6665650000000000000000000000000000000000000000000000000000000000600082015250565b6000610e75600383610a1c565b9150610e8082610e3f565b602082019050919050565b60006040820190508181036000830152610ea481610e68565b9050610eb36020830184610d0e565b92915050565b7f616d6f756e7420746f2072657061790000000000000000000000000000000000600082015250565b6000610eef600f83610a1c565b9150610efa82610eb9565b602082019050919050565b60006040820190508181036000830152610f1e81610ee2565b9050610f2d6020830184610d0e565b92915050565b6000604082019050610f4860008301856109e4565b610f556020830184610d0e565b9392505050565b60008115159050919050565b610f7181610f5c565b8114610f7c57600080fd5b50565b600081519050610f8e81610f68565b92915050565b600060208284031215610faa57610fa96107d7565b5b6000610fb884828501610f7f565b91505092915050565b600081519050919050565b600082825260208201905092915050565b60005b83811015610ffb578082015181840152602081019050610fe0565b8381111561100a576000848401525b50505050565b6000601f19601f8301169050919050565b600061102c82610fc1565b6110368185610fcc565b9350611046818560208601610fdd565b61104f81611010565b840191505092915050565b600060808201905061106f6000830187610d0e565b61107c6020830186610d0e565b61108960408301856109e4565b818103606083015261109b8184611021565b90509594505050505056fea2646970667358221220d1177d96f7fc5ad47acd835f33f62dd7fa0eb1073419c51da4272f547adc10cf64736f6c634300080d0033",
  "immutableReferences": {},
  "source": "// SPDX-License-Identifier: MIT\r\npragma solidity >=0.4.22 <0.9.0;\r\n\r\nimport \"@openzeppelin/contracts/token/ERC20/IERC20.sol\";\r\nimport \"./IUniswap.sol\";\r\nimport \"./IUniswapV2Callee.sol\";\r\n\r\ncontract FlashSwap is IUniswapV2Callee {\r\n\r\n    address private constant WETH = 0xC02aaA39b223FE8D0A0e5C4F27eAD9083C756Cc2;\r\n\r\n    // Uniswap V2 factory\r\n    address private constant FACTORY = 0x5C69bEe701ef814a2B6a3EDD4B1652CB9cc5aA6f;\r\n\r\n    event Log(string message, uint256 val);\r\n\r\n    function doFlashSwap(address _tokenBorrow, uint256 _amount) external {\r\n        address pair = IUniswapV2Factory(FACTORY).getPair(_tokenBorrow, WETH);\r\n        require(pair != address(0), \"!pair\");\r\n\r\n        address token0 = IUniswapV2Pair(pair).token0();\r\n        address token1 = IUniswapV2Pair(pair).token1();\r\n        uint256 amount0Out = _tokenBorrow == token0 ? _amount : 0;\r\n        uint256 amount1Out = _tokenBorrow == token1 ? _amount : 0;\r\n\r\n        // need to pass some data to trigger uniswapV2Call\r\n        bytes memory flashSwapData = abi.encode(_tokenBorrow, _amount);\r\n\r\n        IUniswapV2Pair(pair).swap(\r\n            amount0Out,\r\n            amount1Out,\r\n            address(this),\r\n            flashSwapData\r\n        );\r\n    }\r\n\r\n    //trigger a flashLoan : we call swap on uniswapPairContract and Pair contract calls uniswapV2Call() in return\r\n    function uniswapV2Call(\r\n        address _sender,\r\n        uint256 _amount0,\r\n        uint256 _amount1,\r\n        bytes calldata _data\r\n    ) external override {\r\n        // check the sender is pair contract \r\n        address token0 = IUniswapV2Pair(msg.sender).token0();\r\n        address token1 = IUniswapV2Pair(msg.sender).token1();\r\n        address pair = IUniswapV2Factory(FACTORY).getPair(token0, token1);\r\n        require(msg.sender == pair, \"!pair\");\r\n        require(_sender == address(this), \"!sender\");\r\n\r\n        (address tokenBorrow, uint256 amount) = abi.decode(\r\n            _data,\r\n            (address, uint256)\r\n        );\r\n\r\n        // The approximate comparison of fees is ~ 30 bps for a swap fee\r\n        uint256 fee = ((amount * 3) / 997) + 1;\r\n        uint256 amountToRepay = amount + fee;\r\n\r\n        emit Log(\"amount\", amount);\r\n        emit Log(\"amount0\", _amount0);\r\n        emit Log(\"amount1\", _amount1);\r\n        emit Log(\"fee\", fee);\r\n        emit Log(\"amount to repay\", amountToRepay);\r\n\r\n        IERC20(tokenBorrow).transfer(pair, amountToRepay);\r\n    }\r\n}\r\n",
  "sourcePath": "C:\\Users\\HP\\Documents\\DApp\\Uniswap\\flashSwap\\contracts\\FlashSwap.sol",
  "compiler": {
    "name": "solc",
    "version": "0.8.13+commit.abaa5c0e.Emscripten.clang"
  },
  "schemaVersion": "3.4.6",
  "updatedAt": "2022-10-09T06:19:43.383Z",
  "devdoc": {
    "kind": "dev",
    "methods": {},
    "version": 1
  },
  "userdoc": {
    "kind": "user",
    "methods": {},
    "version": 1
  }
}